{
  "contractName": "SimpleStorage",
  "abi": [
    {
      "constant": true,
      "inputs": [
        {
          "internalType": "uint256",
          "name": "",
          "type": "uint256"
        }
      ],
      "name": "crime",
      "outputs": [
        {
          "internalType": "uint256",
          "name": "crime_id",
          "type": "uint256"
        },
        {
          "internalType": "string",
          "name": "timestamp",
          "type": "string"
        },
        {
          "internalType": "string",
          "name": "offense_code",
          "type": "string"
        },
        {
          "internalType": "string",
          "name": "description",
          "type": "string"
        }
      ],
      "payable": false,
      "stateMutability": "view",
      "type": "function"
    },
    {
      "constant": false,
      "inputs": [
        {
          "internalType": "uint256",
          "name": "_crime_id",
          "type": "uint256"
        },
        {
          "internalType": "string",
          "name": "_timestamp",
          "type": "string"
        },
        {
          "internalType": "string",
          "name": "_offense_code",
          "type": "string"
        },
        {
          "internalType": "string",
          "name": "_description",
          "type": "string"
        }
      ],
      "name": "addCrimeReport",
      "outputs": [
        {
          "internalType": "uint256",
          "name": "",
          "type": "uint256"
        }
      ],
      "payable": false,
      "stateMutability": "nonpayable",
      "type": "function"
    },
    {
      "constant": false,
      "inputs": [
        {
          "internalType": "uint256",
          "name": "_crime_id",
          "type": "uint256"
        },
        {
          "internalType": "string",
          "name": "_timestamp",
          "type": "string"
        },
        {
          "internalType": "string",
          "name": "_offense_code",
          "type": "string"
        },
        {
          "internalType": "string",
          "name": "_description",
          "type": "string"
        }
      ],
      "name": "addReport",
      "outputs": [
        {
          "internalType": "uint256",
          "name": "",
          "type": "uint256"
        }
      ],
      "payable": false,
      "stateMutability": "nonpayable",
      "type": "function"
    },
    {
      "constant": true,
      "inputs": [],
      "name": "getCrimeCount",
      "outputs": [
        {
          "internalType": "uint256",
          "name": "",
          "type": "uint256"
        }
      ],
      "payable": false,
      "stateMutability": "view",
      "type": "function"
    },
    {
      "constant": true,
      "inputs": [
        {
          "internalType": "uint256",
          "name": "index",
          "type": "uint256"
        }
      ],
      "name": "getCrimeBlock",
      "outputs": [
        {
          "internalType": "uint256",
          "name": "",
          "type": "uint256"
        },
        {
          "internalType": "string",
          "name": "",
          "type": "string"
        },
        {
          "internalType": "string",
          "name": "",
          "type": "string"
        },
        {
          "internalType": "string",
          "name": "",
          "type": "string"
        }
      ],
      "payable": false,
      "stateMutability": "view",
      "type": "function"
    },
    {
      "constant": true,
      "inputs": [],
      "name": "getAllCrimeDetails",
      "outputs": [
        {
          "components": [
            {
              "internalType": "uint256",
              "name": "crime_id",
              "type": "uint256"
            },
            {
              "internalType": "string",
              "name": "timestamp",
              "type": "string"
            },
            {
              "internalType": "string",
              "name": "offense_code",
              "type": "string"
            },
            {
              "internalType": "string",
              "name": "description",
              "type": "string"
            }
          ],
          "internalType": "struct SimpleStorage.CrimeDetails[]",
          "name": "",
          "type": "tuple[]"
        }
      ],
      "payable": false,
      "stateMutability": "view",
      "type": "function"
    }
  ],
  "bytecode": "0x608060405234801561001057600080fd5b50611190806100206000396000f3fe608060405234801561001057600080fd5b50600436106100625760003560e01c80633cb4c1cb14610067578063644f30de1461009a57806398231bc9146100b8578063c1134fec146100e8578063e9a51a7714610118578063fdb917ed1461014b575b600080fd5b610081600480360361007c9190810190610c87565b610169565b6040516100919493929190610f5b565b60405180910390f35b6100a26103cc565b6040516100af9190610f1e565b60405180910390f35b6100d260048036036100cd9190810190610cb0565b61066b565b6040516100df9190610f40565b60405180910390f35b61010260048036036100fd9190810190610cb0565b61076d565b60405161010f9190610f40565b60405180910390f35b610132600480360361012d9190810190610c87565b61086f565b6040516101429493929190610fb5565b60405180910390f35b610153610a74565b6040516101609190610f40565b60405180910390f35b600060608060606000858154811061017d57fe5b9060005260206000209060040201600001546000868154811061019c57fe5b9060005260206000209060040201600101600087815481106101ba57fe5b9060005260206000209060040201600201600088815481106101d857fe5b9060005260206000209060040201600301828054600181600116156101000203166002900480601f01602080910402602001604051908101604052809291908181526020018280546001816001161561010002031660029004801561027e5780601f106102535761010080835404028352916020019161027e565b820191906000526020600020905b81548152906001019060200180831161026157829003601f168201915b50505050509250818054600181600116156101000203166002900480601f01602080910402602001604051908101604052809291908181526020018280546001816001161561010002031660029004801561031a5780601f106102ef5761010080835404028352916020019161031a565b820191906000526020600020905b8154815290600101906020018083116102fd57829003601f168201915b50505050509150808054600181600116156101000203166002900480601f0160208091040260200160405190810160405280929190818152602001828054600181600116156101000203166002900480156103b65780601f1061038b576101008083540402835291602001916103b6565b820191906000526020600020905b81548152906001019060200180831161039957829003601f168201915b5050505050905093509350935093509193509193565b60608060008054905060405190808252806020026020018201604052801561040e57816020015b6103fb610a80565b8152602001906001900390816103f35790505b50905060008090505b60008054905081101561066357600080828154811061043257fe5b906000526020600020906004020190508060405180608001604052908160008201548152602001600182018054600181600116156101000203166002900480601f0160208091040260200160405190810160405280929190818152602001828054600181600116156101000203166002900480156104f15780601f106104c6576101008083540402835291602001916104f1565b820191906000526020600020905b8154815290600101906020018083116104d457829003601f168201915b50505050508152602001600282018054600181600116156101000203166002900480601f0160208091040260200160405190810160405280929190818152602001828054600181600116156101000203166002900480156105935780601f1061056857610100808354040283529160200191610593565b820191906000526020600020905b81548152906001019060200180831161057657829003601f168201915b50505050508152602001600382018054600181600116156101000203166002900480601f0160208091040260200160405190810160405280929190818152602001828054600181600116156101000203166002900480156106355780601f1061060a57610100808354040283529160200191610635565b820191906000526020600020905b81548152906001019060200180831161061857829003601f168201915b50505050508152505083838151811061064a57fe5b6020026020010181905250508080600101915050610417565b508091505090565b60008080548091906001016106809190610aa8565b508460006001600080549050038154811061069757fe5b906000526020600020906004020160000181905550836000600160008054905003815481106106c257fe5b906000526020600020906004020160010190805190602001906106e6929190610ada565b50826000600160008054905003815481106106fd57fe5b90600052602060002090600402016002019080519060200190610721929190610ada565b508160006001600080549050038154811061073857fe5b9060005260206000209060040201600301908051906020019061075c929190610ada565b506000805490509050949350505050565b60008080548091906001016107829190610aa8565b508460006001600080549050038154811061079957fe5b906000526020600020906004020160000181905550836000600160008054905003815481106107c457fe5b906000526020600020906004020160010190805190602001906107e8929190610ada565b50826000600160008054905003815481106107ff57fe5b90600052602060002090600402016002019080519060200190610823929190610ada565b508160006001600080549050038154811061083a57fe5b9060005260206000209060040201600301908051906020019061085e929190610ada565b506000805490509050949350505050565b6000818154811061087c57fe5b9060005260206000209060040201600091509050806000015490806001018054600181600116156101000203166002900480601f01602080910402602001604051908101604052809291908181526020018280546001816001161561010002031660029004801561092e5780601f106109035761010080835404028352916020019161092e565b820191906000526020600020905b81548152906001019060200180831161091157829003601f168201915b505050505090806002018054600181600116156101000203166002900480601f0160208091040260200160405190810160405280929190818152602001828054600181600116156101000203166002900480156109cc5780601f106109a1576101008083540402835291602001916109cc565b820191906000526020600020905b8154815290600101906020018083116109af57829003601f168201915b505050505090806003018054600181600116156101000203166002900480601f016020809104026020016040519081016040528092919081815260200182805460018160011615610100020316600290048015610a6a5780601f10610a3f57610100808354040283529160200191610a6a565b820191906000526020600020905b815481529060010190602001808311610a4d57829003601f168201915b5050505050905084565b60008080549050905090565b6040518060800160405280600081526020016060815260200160608152602001606081525090565b815481835581811115610ad557600402816004028360005260206000209182019101610ad49190610b5a565b5b505050565b828054600181600116156101000203166002900490600052602060002090601f016020900481019282601f10610b1b57805160ff1916838001178555610b49565b82800160010185558215610b49579182015b82811115610b48578251825591602001919060010190610b2d565b5b509050610b569190610bb1565b5090565b610bae91905b80821115610baa57600080820160009055600182016000610b819190610bd6565b600282016000610b919190610bd6565b600382016000610ba19190610bd6565b50600401610b60565b5090565b90565b610bd391905b80821115610bcf576000816000905550600101610bb7565b5090565b90565b50805460018160011615610100020316600290046000825580601f10610bfc5750610c1b565b601f016020900490600052602060002090810190610c1a9190610bb1565b5b50565b600082601f830112610c2f57600080fd5b8135610c42610c3d8261103c565b61100f565b91508082526020830160208301858383011115610c5e57600080fd5b610c698382846110e3565b50505092915050565b600081359050610c8181611136565b92915050565b600060208284031215610c9957600080fd5b6000610ca784828501610c72565b91505092915050565b60008060008060808587031215610cc657600080fd5b6000610cd487828801610c72565b945050602085013567ffffffffffffffff811115610cf157600080fd5b610cfd87828801610c1e565b935050604085013567ffffffffffffffff811115610d1a57600080fd5b610d2687828801610c1e565b925050606085013567ffffffffffffffff811115610d4357600080fd5b610d4f87828801610c1e565b91505092959194509250565b6000610d678383610e8f565b905092915050565b6000610d7a82611078565b610d8481856110a6565b935083602082028501610d9685611068565b8060005b85811015610dd25784840389528151610db38582610d5b565b9450610dbe83611099565b925060208a01995050600181019050610d9a565b50829750879550505050505092915050565b6000610def8261108e565b610df981856110c8565b9350610e098185602086016110f2565b610e1281611125565b840191505092915050565b6000610e2882611083565b610e3281856110b7565b9350610e428185602086016110f2565b610e4b81611125565b840191505092915050565b6000610e6182611083565b610e6b81856110c8565b9350610e7b8185602086016110f2565b610e8481611125565b840191505092915050565b6000608083016000830151610ea76000860182610f00565b5060208301518482036020860152610ebf8282610e1d565b91505060408301518482036040860152610ed98282610e1d565b91505060608301518482036060860152610ef38282610e1d565b9150508091505092915050565b610f09816110d9565b82525050565b610f18816110d9565b82525050565b60006020820190508181036000830152610f388184610d6f565b905092915050565b6000602082019050610f556000830184610f0f565b92915050565b6000608082019050610f706000830187610f0f565b8181036020830152610f828186610de4565b90508181036040830152610f968185610de4565b90508181036060830152610faa8184610de4565b905095945050505050565b6000608082019050610fca6000830187610f0f565b8181036020830152610fdc8186610e56565b90508181036040830152610ff08185610e56565b905081810360608301526110048184610e56565b905095945050505050565b6000604051905081810181811067ffffffffffffffff8211171561103257600080fd5b8060405250919050565b600067ffffffffffffffff82111561105357600080fd5b601f19601f8301169050602081019050919050565b6000819050602082019050919050565b600081519050919050565b600081519050919050565b600081519050919050565b6000602082019050919050565b600082825260208201905092915050565b600082825260208201905092915050565b600082825260208201905092915050565b6000819050919050565b82818337600083830152505050565b60005b838110156111105780820151818401526020810190506110f5565b8381111561111f576000848401525b50505050565b6000601f19601f8301169050919050565b61113f816110d9565b811461114a57600080fd5b5056fea365627a7a723158202c18e36ba3e410fc284129130b802bd33d3e7f0f4a9ef4278a1b8f7eeab11c366c6578706572696d656e74616cf564736f6c634300050c0040",
  "source": "pragma solidity ^0.5.0;\npragma experimental ABIEncoderV2;\n\ncontract SimpleStorage {  \n  struct CrimeDetails {\n        uint crime_id;\n        string timestamp;\n        string offense_code;\n        string description;       \n    }\n    \n    CrimeDetails[] public crime;    \n\n    function addCrimeReport(uint _crime_id, string memory _timestamp, string memory _offense_code, string memory _description) public returns(uint) {\n        crime.length++;\n        crime[crime.length-1].crime_id = _crime_id;\n        crime[crime.length-1].timestamp = _timestamp;\n        crime[crime.length-1].offense_code = _offense_code;\n        crime[crime.length-1].description = _description;\n        return crime.length;        \n    }\n    function addReport(uint _crime_id, string memory _timestamp, string memory _offense_code, string memory _description) public returns(uint) {\n        crime.length++;\n        crime[crime.length-1].crime_id = _crime_id;\n        crime[crime.length-1].timestamp = _timestamp;\n        crime[crime.length-1].offense_code = _offense_code;\n        crime[crime.length-1].description = _description;\n        return crime.length;        \n    }\n    \n    function getCrimeCount() public view returns(uint) {\n        return crime.length;\n    }\n    \n    function getCrimeBlock(uint index) public view returns (uint, string memory, string memory, string memory)\n    {\n        return (crime[index].crime_id, crime[index].timestamp, crime[index].offense_code, crime[index].description);\n    }\n    function getAllCrimeDetails() public view returns (CrimeDetails[] memory)\n    {\n        CrimeDetails[] memory id = new CrimeDetails[](crime.length);\n        for (uint i = 0; i < crime.length; i++) {\n            CrimeDetails storage tempCrime = crime[i];\n            id[i] = tempCrime;\n        }\n        return id;\n    }\n}\n",
  "sourcePath": "D:/Main Project/FIR Lodging System/contracts/SimpleStorage.sol",
  "compiler": {
    "name": "solc",
    "version": "0.5.12+commit.7709ece9.Emscripten.clang"
  },
  "schemaVersion": "3.0.23",
  "updatedAt": "2020-04-30T05:12:58.405Z",
  "networkType": "ethereum",
  "devdoc": {
    "methods": {}
  },
  "userdoc": {
    "methods": {}
  }
}